:100000000C9434000C9449000C9449000C94490061
:100010000C9449000C9449000C9449000C9449003C
:100020000C9449000C9449000C9449000C9449002C
:100030000C9449000C9449000C9449000C9449001C
:100040000C9449000C9449000C9449000C9449000C
:100050000C9449000C9449000C9449000C944900FC
:100060000C9449000C94490011241FBECFEFD8E036
:10007000DEBFCDBF11E0A0E0B1E0E4E1F1E002C0FD
:1000800005900D92A433B107D9F70E947C000C941F
:1000900088000C940000FC01EE0FFF1FE050FF4FA2
:1000A00020813181C90154E0880F991F5A95E1F7E9
:1000B0008BB9C90144E0959587954A95E1F780632E
:1000C00085B9359527953595279528B90895A82F91
:1000D000B0E0FD01E05EFE4F80818BB98F7385B982
:1000E000FD01EE0FFF1FE050FF4FA65DBE4F808168
:1000F0009C91892388B9089580EF8AB98FE384B9E8
:1001000087B980E090E00E944B0080E090E0089585
:04011000F894FFCF91
:100114003F0006005B004F0066006D007C00270076
:100124007F00670077007C0039005E007900710071
:100134003F065B4F666D7C277F670000010101016C
:0401440001000101B4
:00000001FF
