:100000000C9434000C943E000C943E000C943E0082
:100010000C943E000C943E000C943E000C943E0068
:100020000C943E000C943E000C943E000C943E0058
:100030000C943E000C943E000C943E000C943E0048
:100040000C943E000C943E000C943E000C943E0038
:100050000C943E000C943E000C943E000C943E0028
:100060000C943E000C943E0011241FBECFEFD8E04C
:10007000DEBFCDBF0E9440000C9460000C940000D5
:100080008FEF8AB920E030E061E070E040E951E0B4
:10009000CB01022E02C0880F991F0A94E2F78095C7
:1000A0008BB980E991E0FA013197F1F70197D9F71F
:1000B0002F5F3F4F283031055CF320E030E0E8CF80
:0400C000F894FFCFE2
:00000001FF
