:100000000C9434000C9449000C9449000C94490061
:100010000C9449000C9449000C9449000C9449003C
:100020000C9449000C9449000C9449000C9449002C
:100030000C9449000C9449000C9449000C9449001C
:100040000C9449000C9449000C9449000C9449000C
:100050000C9449000C9449000C9449000C944900FC
:100060000C9449000C94490011241FBECFEFD8E036
:10007000DEBFCDBF11E0A0E0B1E0E6E5F1E002C0F7
:1000800005900D92AE31B107D9F70E944B000C9448
:10009000A9000C9400000F931F93CF93DF939FEF61
:1000A00094B98FE387B99AB9C0E0D0E000E911E0D4
:1000B000CE016AE070E00E9482009C01CE016AE0FD
:1000C00070E00E948200FB01E050FF4F80818BB9FD
:1000D000F901E65FFE4F808185B92C5E3E4FF90144
:1000E000808188B988E893E1F8013197F1F70197A9
:1000F000D9F72196C436D105D9F6DF91CF911F915A
:100100000F91089597FB092E07260AD077FD04D09A
:100110000CD006D000201AF4709561957F4F089599
:10012000F6F7909581959F4F0895AA1BBB1B51E14F
:1001300007C0AA1FBB1FA617B70710F0A61BB70B57
:10014000881F991F5A95A9F780959095BC01CD01FC
:060150000895F894FFCFB2
:100156003F065B4F666D7D077F6F3F061B0F262DA3
:0E0166003D073F2F00000101010101000101D2
:00000001FF
