:100000000C9434000C9449000C9449000C94490061
:100010000C9449000C9449000C9449000C9449003C
:100020000C9449000C9449000C9449000C9449002C
:100030000C9449000C9449000C9449000C9449001C
:100040000C9449000C9449000C9449000C9449000C
:100050000C9449000C9449000C9449000C944900FC
:100060000C9449000C94490011241FBECFEFD8E036
:10007000DEBFCDBF11E0A0E0B1E0E2EAF1E002C0F6
:1000800005900D92A832B107D9F70E944B000C944D
:10009000CF000C9400000F931F93CF93DF9380EF5A
:1000A0008AB98FE384B987B9C0E0D0E000E911E0F4
:1000B00023C0CE016AE070E00E94A8009B0120509E
:1000C0003F4FD9018C918BB9CE016AE070E00E945C
:1000D000A800FC01EC5EFE4FD9011A968C9190812C
:1000E000892B85B9828588B988E893E1F801319731
:1000F000F1F70197D9F72196C436D105D4F2C3E6BA
:10010000D0E0CE016AE070E00E94A8009B01205080
:100110003F4FF90180818BB9CE016AE070E00E9407
:10012000A800FC01EC5EFE4FD9011A968C919081DB
:10013000892B85B9828588B988E893E1F8013197E0
:10014000F1F70197D9F72197E1F6C0E0D0E0D4CFDD
:1001500097FB092E07260AD077FD04D00CD006D0D5
:1001600000201AF4709561957F4F0895F6F79095E9
:1001700081959F4F0895AA1BBB1B51E107C0AA1F81
:10018000BB1FA617B70710F0A61BB70B881F991F38
:100190005A95A9F780959095BC01CD010895F894E2
:0201A000FFCF8F
:1001A200F060B0F060D0D070F0F0030005040606F5
:1001B20007020706302030302010103030300F0197
:0801C2001613191B1F091F1B76
:00000001FF
