:100000000C9434000C9449000C9449000C94490061
:100010000C9449000C9449000C9449000C9449003C
:100020000C9449000C9449000C9449000C9449002C
:100030000C9449000C9449000C9449000C9449001C
:100040000C9449000C9449000C9449000C9449000C
:100050000C9449000C9449000C9449000C944900FC
:100060000C9449000C94490011241FBECFEFD8E036
:10007000DEBFCDBF11E0A0E0B1E0E4E3F1E002C0FB
:1000800005900D92A832B107D9F70E944B000C944D
:1000900098000C940000CF93DF9380EF8AB98FE330
:1000A00084B987B920E030E0C0E9D1E0C9016AE055
:1000B00070E00E947100FB01E050FF4F80818BB91E
:1000C000828585B988E893E1FE013197F1F70197C0
:1000D000D9F72F5F3F4F2436310541F7DF91CF919C
:1000E000089597FB092E07260AD077FD04D00CD07F
:1000F00006D000201AF4709561957F4F0895F6F7A9
:10010000909581959F4F0895AA1BBB1B51E107C095
:10011000AA1FBB1FA617B70710F0A61BB70B881F97
:10012000991F5A95A9F780959095BC01CD01089526
:04013000F894FFCF71
:10013400F060B0F0D0D0D070F0F003000504066099
:1001440007020706302030302001010303030F01AA
:080154001613191B1F091F1BE4
:00000001FF
