:100000000C9434000C948B000C94B6000C944600B5
:100010000C9446000C9446000C9446000C94460048
:100020000C9446000C9446000C9446000C94460038
:100030000C9446000C9446000C9446000C94460028
:100040000C9446000C9446000C9446000C94460018
:100050000C9446000C9446000C9446000C94460008
:100060000C9446000C94460011241FBECFEFD8E03C
:10007000DEBFCDBF11E0A0E0B1E001C01D92A23013
:10008000B107E1F70E94DD000C940F010C94000011
:10009000DF93CF9300D000D0CDB7DEB79C838B83A6
:1000A000A4E2B0E0E4E2F0E0808182608C93A0E81A
:1000B000B0E0E0E8F0E0808180648C93A1E8B0E0FB
:1000C000E1E8F0E080818A618C93E6E8F0E08B81E2
:1000D0009C81918380830F900F900F900F90CF9110
:1000E000DF910895DF93CF93CDB7DEB7E0E8F0E07E
:1000F0001082E1E8F0E01082E4E8F0E01182108282
:10010000E6E8F0E011821082E4E2F0E08DEF808317
:10011000CF91DF9108951F920F920FB60F92112485
:100120008F939F93AF93BF93EF93FF93DF93CF93FF
:10013000CDB7DEB7F89481E090E090930101809311
:100140000001ACE3B0E0ECE3F0E0808181608C93EF
:100150007894CF91DF91FF91EF91BF91AF919F91F3
:100160008F910F900FBE0F901F9018951F920F92B6
:100170000FB60F9211248F93AF93BF93EF93FF931A
:10018000DF93CF93CDB7DEB7F894109201011092B0
:100190000001ACE3B0E0ECE3F0E0808182608C939E
:1001A0007894CF91DF91FF91EF91BF91AF918F91B3
:1001B0000F900FBE0F901F901895DF93CF93CDB780
:1001C000DEB7F894EAE2F0E083EF8083E4E2F0E067
:1001D0008FE08083E5E2F0E01082EBE2F0E0108255
:1001E000E9E6F0E08AE08083EDE3F0E083E08083FD
:1001F000ACE3B0E0ECE3F0E0808183608C93789432
:1002000080910001909101018130910529F481EEE6
:1002100098E00E944800F4CF0E947200F1CFF89459
:02022000FFCF0E
:00000001FF
