:100000000C9434000C9449000C9449000C94490061
:100010000C9449000C9449000C9449000C9449003C
:100020000C9449000C9449000C9449000C9449002C
:100030000C9449000C9449000C9449000C9449001C
:100040000C9449000C9449000C9449000C9449000C
:100050000C9449000C9449000C9449000C944900FC
:100060000C9449000C94490011241FBECFEFD8E036
:10007000DEBFCDBF11E0A0E0B1E0E0E1F2E002C000
:1000800005900D92A431B107D9F70E944B000C9452
:1000900006010C9400009F92AF92BF92CF92DF9224
:1000A000EF92FF920F931F93CF93DF9383EF8AB961
:1000B0008FEF84B987B99090000110910A01106305
:1000C00020E030E0C0E9D1E040E1E42EF12C91E005
:1000D000A92EB12C80EDC82ED12C89B18C70843022
:1000E000B1F42F5F3F4F2A30310511F420E030E0AA
:1000F000F901E050FF4F80818BB9828585B988E88E
:1001000093E1FE013197F1F70197D9F7E6CF8830F7
:1001100021F7F901E050FF4F81E0E030F80729F4C2
:100120009BB815B920E030E0D8CF6285708140E0FF
:1001300050E095B19701042E02C0220F331F0A949C
:10014000E2F7822F8095892385B985B1862B822B92
:1001500085B97BB988EB9BE0DE011197F1F7019738
:10016000D9F74F5F5F4F4230510519F720E030E07B
:10017000062F0063C501022E02C0880F991F0A9442
:10018000E2F7809588B97BB905B988EB9BE0DE0181
:100190001197F1F70197D9F72F5F3F4F26303105BF
:1001A00049F740E050E025B1262BC601042E02C0DD
:1001B000959587950A94E2F7282B25B97BB988EBAA
:1001C0009BE0DE011197F1F70197D9F74F5F5F4F81
:1001D0004230510541F720E030E0C701022E02C055
:1001E000959587950A94E2F7809588B97BB905B90A
:1001F00088EB9BE0DE011197F1F70197D9F72F5FAC
:100200003F4F2630310549F7319786CFF894FFCF1D
:10021000F060B0F060D0D070F0F003000504060686
:0402200007020706C4
:00000001FF
